{
  "contractName": "ToDoList",
  "abi": [
    {
      "constant": true,
      "inputs": [],
      "name": "taskCount",
      "outputs": [
        {
          "name": "",
          "type": "uint256"
        }
      ],
      "payable": false,
      "stateMutability": "view",
      "type": "function",
      "signature": "0xb6cb58a5"
    }
  ],
  "bytecode": "0x608060405260008055348015601357600080fd5b50609e806100226000396000f3fe608060405260043610603f576000357c0100000000000000000000000000000000000000000000000000000000900463ffffffff168063b6cb58a5146044575b600080fd5b348015604f57600080fd5b506056606c565b6040518082815260200191505060405180910390f35b6000548156fea165627a7a7230582068f65acb169d498df9f10e279570dd051caca03b2aef6cd7809acc273286a3730029",
  "source": "// SPDX-Licence-Identifier: \tAFL-3.0\r\npragma solidity >=0.5.0; //verzija\r\n\r\ncontract ToDoList{\r\n    // state variable (predstavljaju state contracta na blockchainu)\r\n    // scope pripada cijelom contractu, a ne samo funkciji\r\n    // public daje funkciju kojom se omogući čitanje taskCount vrijednosti unutar ToDoList contracta\r\n    uint public taskCount=0;\r\n\r\n}",
  "sourcePath": "C:/Users/marij/EthereumToDoList/contracts/ToDoList.sol",
  "compiler": {
    "name": "solc",
    "version": "0.5.0+commit.1d4f565a.Emscripten.clang"
  },
  "schemaVersion": "3.0.1",
  "updatedAt": "2021-03-14T10:22:57.154Z",
  "devdoc": {
    "methods": {}
  },
  "userdoc": {
    "methods": {}
  }
}