{
  "contractName": "ToDoList",
  "abi": [
    {
      "constant": true,
      "inputs": [
        {
          "name": "",
          "type": "uint256"
        }
      ],
      "name": "tasks",
      "outputs": [
        {
          "name": "id",
          "type": "uint256"
        },
        {
          "name": "content",
          "type": "string"
        },
        {
          "name": "completed",
          "type": "bool"
        }
      ],
      "payable": false,
      "stateMutability": "view",
      "type": "function",
      "signature": "0x8d977672"
    },
    {
      "constant": true,
      "inputs": [],
      "name": "taskCount",
      "outputs": [
        {
          "name": "",
          "type": "uint256"
        }
      ],
      "payable": false,
      "stateMutability": "view",
      "type": "function",
      "signature": "0xb6cb58a5"
    },
    {
      "inputs": [],
      "payable": false,
      "stateMutability": "nonpayable",
      "type": "constructor",
      "signature": "constructor"
    },
    {
      "constant": false,
      "inputs": [
        {
          "name": "_content",
          "type": "string"
        }
      ],
      "name": "createTask",
      "outputs": [],
      "payable": false,
      "stateMutability": "nonpayable",
      "type": "function",
      "signature": "0x111002aa"
    }
  ],
  "bytecode": "0x60806040526000805534801561001457600080fd5b506100626040805190810160405280600e81526020017f537475647920736f6c6964697479000000000000000000000000000000000000815250610067640100000000026401000000009004565b61019f565b600080815480929190600101919050555060606040519081016040528060005481526020018281526020016000151581525060016000805481526020019081526020016000206000820151816000015560208201518160010190805190602001906100d39291906100fa565b5060408201518160020160006101000a81548160ff02191690831515021790555090505050565b828054600181600116156101000203166002900490600052602060002090601f016020900481019282601f1061013b57805160ff1916838001178555610169565b82800160010185558215610169579182015b8281111561016857825182559160200191906001019061014d565b5b509050610176919061017a565b5090565b61019c91905b80821115610198576000816000905550600101610180565b5090565b90565b61044e806101ae6000396000f3fe608060405260043610610057576000357c0100000000000000000000000000000000000000000000000000000000900463ffffffff168063111002aa1461005c5780638d97767214610124578063b6cb58a5146101ea575b600080fd5b34801561006857600080fd5b506101226004803603602081101561007f57600080fd5b810190808035906020019064010000000081111561009c57600080fd5b8201836020820111156100ae57600080fd5b803590602001918460018302840111640100000000831117156100d057600080fd5b91908080601f016020809104026020016040519081016040528093929190818152602001838380828437600081840152601f19601f820116905080830192505050505050509192919290505050610215565b005b34801561013057600080fd5b5061015d6004803603602081101561014757600080fd5b81019080803590602001909291905050506102a8565b604051808481526020018060200183151515158152602001828103825284818151815260200191508051906020019080838360005b838110156101ad578082015181840152602081019050610192565b50505050905090810190601f1680156101da5780820380516001836020036101000a031916815260200191505b5094505050505060405180910390f35b3480156101f657600080fd5b506101ff610377565b6040518082815260200191505060405180910390f35b6000808154809291906001019190505550606060405190810160405280600054815260200182815260200160001515815250600160008054815260200190815260200160002060008201518160000155602082015181600101908051906020019061028192919061037d565b5060408201518160020160006101000a81548160ff02191690831515021790555090505050565b6001602052806000526040600020600091509050806000015490806001018054600181600116156101000203166002900480601f01602080910402602001604051908101604052809291908181526020018280546001816001161561010002031660029004801561035a5780601f1061032f5761010080835404028352916020019161035a565b820191906000526020600020905b81548152906001019060200180831161033d57829003601f168201915b5050505050908060020160009054906101000a900460ff16905083565b60005481565b828054600181600116156101000203166002900490600052602060002090601f016020900481019282601f106103be57805160ff19168380011785556103ec565b828001600101855582156103ec579182015b828111156103eb5782518255916020019190600101906103d0565b5b5090506103f991906103fd565b5090565b61041f91905b8082111561041b576000816000905550600101610403565b5090565b9056fea165627a7a72305820c36a53f6f2f9cf0b620863ebb406559939ebec1210252a5ede1710a934384a090029",
  "source": "// SPDX-Licence-Identifier: \tAFL-3.0\npragma solidity >=0.5.0; //verzija\n\ncontract ToDoList {\n    // state variable (predstavljaju state contracta na blockchainu). Sprema se u storage.\n    // scope pripada cijelom contractu, a ne samo funkciji\n    // public daje funkciju kojom se omogući čitanje taskCount vrijednosti unutar ToDoList contracta\n    // uint -> nteger koj ne moze bit negativan\n    uint256 public taskCount = 0;\n\n    struct Task {\n        uint256 id;\n        string content;\n        bool completed;\n    }\n\n    //taskove zelimo staviti u storage na blockchainu\n    // tasks je također state varijabla\n    // mapping je kao asosiative array pri kojom se spremaju key-value parovi\n    // key će bit uint podatak (zapravo id), value je Task struct\n    // public da bi ih mogli procitati\n    // ne moze se iterirat mapping, nego jedino referencirat task jedan po jedan (npr tasks[1])\n    // task = await todoList.tasks(1)\n    // zato se koristi taskCount koji vodi racuna o broju taskova\n    mapping(uint256 => Task) public tasks;\n\n    // dodavanje inicijalnih podataka (koji se dodaju za vrime deploymenta)\n    // default task\n    constructor() public {\n        createTask(\"Study solidity\");\n    }\n\n    //memory se koristi samo u metodama\n    //Memory is a byte-array, which hold the data in it until the execution of the function\n    // fja prima content (text zadatka)\n    function createTask(string memory _content) public {\n        // prvo treba odredit id za task\n        taskCount++;\n        //dodavanje id-ja u Task\n        // to je novi zadatak pa je completed false\n        tasks[taskCount] = Task(taskCount, _content, false);\n    }\n}\n",
  "sourcePath": "C:/Users/marij/EthereumToDoList/contracts/ToDoList.sol",
  "compiler": {
    "name": "solc",
    "version": "0.5.0+commit.1d4f565a.Emscripten.clang"
  },
  "schemaVersion": "3.0.1",
  "updatedAt": "2021-03-15T14:27:45.893Z",
  "devdoc": {
    "methods": {}
  },
  "userdoc": {
    "methods": {}
  }
}